:1000000019C033C032C00AC131C12FC03DC72DC095
:100010002CC02BC07EC129C028C027C026C025C047
:1000200024C023C022C021C020C01FC038C91DC0A9
:100030001CC01BC011241FBECFEFCDBFDFE3DEBF4E
:100040001EE3A0E0BEE3E6E3FFE102C005900D92EF
:10005000A630B107D9F72FE3A6E0BEE301C01D9299
:10006000A532B207E1F726D2DBCD1CC1E0E0F6E015
:10007000808180830895E0E0F6E080818160808364
:100080000895F4DF80E38093A000F5DF0895E0E0B9
:10009000F6E0838580FFFDCF08951F93CF93DF9314
:1000A000C0E0D6E011E01887F2DF1B87DF91CF9127
:1000B0001F910895CF93DF93C0E0D6E085E08E8353
:1000C000ECDF88899989DF91CF910895CF93DF93F1
:1000D000C0E0D6E081E08E83E0DF88899989DF91F6
:1000E000CF910895CF93DF93C0E0D6E08EE18E8369
:1000F000D4DF88899989DF91CF9108951092603E6D
:1001000010925F3E0895E0E0F4E08189887F818B62
:1001100081898460818B8589887F858B85898460CE
:10012000858B0895E0E0F4E080E88683818380E4B5
:10013000818380E1858381838CE0828382898860EA
:10014000828B83898860838BE0E2F4E083E18183A2
:1001500080E28283A0E4B4E08FE011968C93119743
:1001600015961C9281E08183CEDF0895809108046A
:1001700086958695869591E08927817090E008950F
:10018000E0E0F4E082898360828B83898360838BE3
:1001900008951816190644F48091633E882321F0CF
:1001A00081E080932504089581E0809326040895DA
:1001B000E0E0F4E080E8858392E49A95F1F700C0EE
:1001C000868382E48A95F1F700C00895E0E4F4E0C4
:1001D0009481907F948394818F70982B9483089559
:1001E00080E480930504089580E4809306040895D4
:1001F00080E0ECDF80E4809306040895E0E2F4E020
:1002000084E085838183089584E0809326040895A3
:10021000E0E2F4E085898960858B08951F920F9252
:100220000FB60F9211248F93EF93FF9380910904DF
:1002300082FF08C081E08093603EE9E0F4E08081C5
:10024000847080838091090483FF08C081E08093DB
:10025000183EE9E0F4E0808188708083FF91EF919F
:100260008F910F900FBE0F901F9018951F920F92B5
:100270000FB60F9211248F93EF93FF93809129046F
:1002800085FF08C081E080935F3EE9E2F4E0808171
:1002900080728083FF91EF918F910F900FBE0F902E
:1002A0001F9018951F920F920FB60F9211242F9343
:1002B0003F934F935F936F937F938F939F93AF93EE
:1002C000BF93EF93FF9386E29CE948D6FF91EF91AD
:1002D000BF91AF919F918F917F916F915F914F915E
:1002E0003F912F910F900FBE0F901F901895E0E057
:1002F000FAE08BE29AE086A397A381E082870895D3
:1003000087DFF5DF089580915F3E811110925F3E97
:1003100008951F920F920FB60F9211241092173E5C
:100320000F900FBE0F901F9018959091603E809196
:10033000183E811102C0992341F01092603E109244
:10034000183E81E08093DA3ED6D42FEF80E792E02A
:10035000215080409040E1F700C000000895FF92D6
:100360000F931F93CF93DF9380910A3E8823B9F0B8
:1003700010920A3E80EB94E08093023E9093033EFD
:1003800086E095E080931B3E90931C3E81EC94E0C8
:100390008093193E90931A3E81E090E0FADEE0915E
:1003A000023EF091033E09952FEF80E792E0215045
:1003B00080409040E1F700C000001092DB3E1092B8
:1003C000DC3E0EE21CE9C4E7DEE32DC08FE19EE4D3
:1003D0000197F1F700C000008091DC3E8F9380917F
:1003E000DB3E8F931F930F93DF93CF931FD9CE01E3
:1003F00094D58091DB3E9091DC3E01968093DB3E6C
:100400009093DC3E0F900F900F900F900F900F90F5
:1004100020910C3E211110C08D32914020F081E0DE
:100420008093103E09C0F090603EA0DE21E0892B51
:1004300009F020E0F21650F280E49CE96ED580913C
:10044000603E882339F01092603EE0911B3EF091AF
:100450001C3E09958BDE892B39F01092183EE091F5
:10046000193EF0911A3E09958091103E882349F07B
:100470008CE49CE952D51092103E1092DA3E80E056
:100480003AD4DF91CF911F910F91FF90089536DEFE
:1004900049DE36DF75DE2ED535D1F3DD81E1E0E6CC
:1004A000FCE9A4EABEE301900D928A95E1F7FDD143
:1004B00078940895ECDF81E79CE9D4D18CE89CE93D
:1004C0002CD581E090E065DE82E08093633ECFE84A
:1004D000D2E00F2EFFEACF2EF1E0DF2EF02D0F2E0F
:1004E000F5E9EF2EF1E0FF2EF02D8E018091633EB5
:1004F000813039F020F0823029F4E80103C0E701AF
:1005000001C0E601FE010995F1CFE0E5F0E0808150
:10051000826080838081816080838895089581E0F6
:1005200090E037DEF0DE8091173E811101C06CDE75
:100530008091603E882319F01092603EF8D180913E
:10054000183E882329F01092183E86E99CE9E5D4EC
:100550008091163E882319F059D51092163E80914D
:10056000153E882359F01092153E8FD18DED9EE3F4
:1005700079D16ED185EC9EE375D1F6D48091143E8D
:10058000882361F082D180EA9CE96CD11092143EFC
:100590008091DA3EB0D381E08093103E8091123E8C
:1005A000882339F072D184EA9EE35CD11092123E26
:1005B000DBD48091113E882311F18091D93E8F9335
:1005C0008091D83E8F938091D73E8F938091D63E75
:1005D0008F938DEB9CE99F938F9384E79EE39F938A
:1005E0008F9324D884E79EE3B9D41092113E09D4A6
:1005F000FCD3BAD48DB79EB708968DBF9EBF8091AD
:10060000103E882379F01092103E8CE49CE9A6D429
:100610009FEF20E782E0915020408040E1F700C04A
:10062000000073DF80910F3E8823C1F010920F3ECF
:100630004DDD9F938F938AED9CE99F938F9384E781
:100640009EE39F938F93F2D784E79EE387D48CD465
:100650000F900F900F900F900F900F9080910E3E83
:100660008823C1F010920E3E3DDD9F938F9380EE64
:100670009CE99F938F9384E79EE39F938F93D6D7B4
:1006800084E79EE36BD470D40F900F900F900F907F
:100690000F900F9080910D3E8823C1F010920D3E77
:1006A00009DD9F938F9386EE9CE99F938F9384E758
:1006B0009EE39F938F93BAD784E79EE34FD454D49D
:1006C0000F900F900F900F900F900F908091093E18
:1006D00081111092093E8091083E882341F01092CA
:1006E000083E80915D3E90915E3E13D13DD49FEFD8
:1006F00020E782E0915020408040E1F700C00000F8
:100700001BD108952FE78AE196E021508040904068
:10071000E1F700C0000068DD83E058DD81E048DDDE
:1007200087E893E10197F1F700C0000083E04EDD18
:1007300081E03EDD87E893E10197F1F700C000001A
:1007400083E044DD81E034DD87E893E10197F1F750
:1007500000C0000082E03ADD81E02ADD87E893E115
:100760000197F1F700C0000082E030DD81E020DD7C
:1007700087E893E10197F1F700C0000088E026DDEB
:1007800081E016DD87E893E10197F1F700C00000F2
:1007900080E01CDD81E00CDD87E893E10197F1F753
:1007A00000C000008CE012DD81E002DD87E893E10B
:1007B0000197F1F700C0000080E008DD81E0F8DC7F
:1007C00087E893E10197F1F700C0000086E0FEDCC6
:1007D00081E0EEDC87E893E10197F1F700C00000CB
:1007E00080E0F4DC81E0E4DC87E893E10197F1F755
:1007F00000C0000086E0EADC81E0DADC87E893E113
:100800000197F1F700C0000080E0E0DC81E0D0DC7F
:1008100087E893E10197F1F700C0000081E0D6DCA2
:1008200081E0C6DC87E893E10197F1F700C00000A2
:100830000895CF93C82FD4DC8C2F82958F70C6DC9F
:1008400081E0B6DC8C2FC2DC81E0B2DCCF91089570
:10085000CBDC8CE0BBDC81E0ABDC80E0B7DC81E0B2
:10086000A7DC0895CF93DF93EC01BADC888188235D
:1008700049F021968A3011F4EBDF01C0DADF89916B
:100880008111F8CFDF91CF910895AEDC80E09EDC3E
:1008900081E08EDC81E09ADC81E08ADC87EA91E607
:1008A0000197F1F700C000000895E0E0FAE08285CA
:1008B0008E788287818183608183808180838FEFBE
:1008C0009FEF86AB97AB21852E7F2187A0E0B2E01A
:1008D00012962C911297226012962C9321812061FE
:1008E00021832181206221838093613E9093623E27
:1008F00080A791A780935D3E90935E3E82A793A7C9
:1009000080818160808308958093280A9093290ACA
:10091000089580932A0A90932B0A089580915D3E52
:1009200090915E3E80932A0A90932B0A089510922C
:100930002A0A10922B0A089580912A0A90912B0A74
:10094000892B11F4EBDF089510922A0A10922B0ADA
:10095000089580EB94E08093023E9093033E0895C7
:1009600094DF8CEE9CE97EDF86E095E080931B3E71
:1009700090931C3E81EC94E08093193E90931A3E34
:10098000089581EC94E08093023E9093033E7DDFD6
:100990008EE09DE967DF88ED94E080931B3E9093A5
:1009A0001C3E8FEE94E08093193E90931A3E08957A
:1009B00088ED94E08093023E9093033E66DF80E3EF
:1009C0009DE950DF89EA94E080931B3E90931C3EA2
:1009D00081E396E08093193E90931A3E08958FEE3E
:1009E00094E08093023E9093033E4FDF82E59DE9C1
:1009F00039DF86E496E080931B3E90931C3E89EAA3
:100A000094E08093193E90931A3E08952F923F925E
:100A10004F925F926F927F928F929F92AF92BF920E
:100A2000CF92DF92EF92FF920F931F93CF93DF93BA
:100A300000D000D0CDB7DEB786E095E08093023ECF
:100A40009093033E80904C0190904D01809148011D
:100A500090914901881A990AA12CB12C880C991CF3
:100A6000AA1CBB1C880C991CAA1CBB1C880C991CBA
:100A7000AA1CBB1C880C991CAA1CBB1C880C991CAA
:100A8000AA1CBB1CC501B40120E831E541E050E0DF
:100A900030D42B833C83142F052FC22ED32EE42E6B
:100AA000F52EC114D104E104F104B9F4ABC00197EF
:100AB000F1F780E8881A81E5980A81E0A80AB10870
:100AC0002F5F3F4FC901032E000CAA0BBB0B8C15E7
:100AD0009D05AE05BF0518F005C020E030E088E1B7
:100AE00090E0E5CFC501B40120E13EE040E050E0F8
:100AF00000D4B22EA32E942E852E422E532E642E79
:100B0000752E2CE330E040E050E0F3D3222E332E5C
:100B1000B42FA52FF62F79838A83E92FC114D1042E
:100B2000E104F10439F0EAE0CE16D104E104F10465
:100B3000C8F51AC0EF938A818F9399819F93FF9391
:100B4000AF93BF933F922F927F926F925F924F929B
:100B500084E79DE99F938F9384E79EE39F938F9310
:100B600065D5CDBFDEBF3BC09F938F937F936F93BF
:100B70005F934F933F932F938F929F92AF92BF9229
:100B80000F931F939C819F93EB81EF938EE89DE9D8
:100B90009F938F9384E79EE39F938F9347D5CDBF19
:100BA000DEBF1DC09F938F937F936F935F934F938F
:100BB0003F932F938F929F92AF92BF920F931F9369
:100BC0009C819F93EB81EF9389EA9DE99F938F939B
:100BD00084E79EE39F938F9329D5CDBFDEBF55DE7B
:100BE00084EA9EE33FDE34DE84E79EE33BDE89EA6F
:100BF00094E080931B3E90931C3E8093193E90930B
:100C00001A3E19C0C501B40120E13EE040E050E0C9
:100C100070D3422E532E642E752E2CE330E040E02C
:100C200050E067D3222E332EB42FA52FF62F7983D1
:100C30008A83E92F7FCF2496CDBFDEBFDF91CF918E
:100C40001F910F91FF90EF90DF90CF90BF90AF90EA
:100C50009F908F907F906F905F904F903F902F90DC
:100C6000089513DE84EC9DE9FDDD81E080930B3E69
:100C70008AE0E4EEFDE9A4E6BEE301900D928A95D8
:100C8000E1F782E08093DA3E36D00895FEDD8EEE05
:100C90009DE9E8DD82E08093DA3E8AE0EDE0FEE95E
:100CA000A4E6BEE301900D928A95E1F782E023D09D
:100CB0000895E0E0F4E084818061848381E08093A2
:100CC000013E0895E0E0F4E084818F7E84831092F9
:100CD000013E0895E0E2F4E084818D7F848381E029
:100CE0008093003E0895E0E2F4E084818260848392
:100CF0001092003E08950F931F93CF93DF9381309E
:100D0000E1F120F0823009F449C05FC08091633E78
:100D1000823049F58091043E882319F107E11EE9EC
:100D2000CFE0DFE31F928F931F930F93DF93CF9357
:100D30007DD4ABDDCE0196DD9AE22CE28AE09150C3
:100D400020408040E1F700008091043E8150809374
:100D5000043E0F900F900F900F900F900F90811105
:100D6000E1CF1092043E44DABEDF80E090E011DA79
:100D7000DEDDA8DF1092633E28C0C1E0C093633E71
:100D8000FFD997DF86E490E10197F1F700C0BADC64
:100D9000C0930A3E80910C3E8823B9F080E1E1E2E5
:100DA000FEE9ADEDBEE301900D928A95E1F780E199
:100DB000E1E3FEE9A5ECBEE301900D928A95E1F72F
:100DC00078DF88DF82E08093633EDF91CF911F91CF
:100DD0000F910895E0E4F1E0108611860895E0E4B3
:100DE000F1E081818111FDCF089510920C3EF7DF73
:100DF000E0E4F1E089EF808382E0828381E0878311
:100E00000895CF92DF92EF92FF92C090D63ED0909D
:100E1000D73EE090D83EF090D93EFF202CF48FE1F1
:100E2000C80ED11CE11CF11C689414F8F594E794E9
:100E3000D794C7941694D1F7FF92EF92DF92CF9296
:100E400086E79EE99F938F9384E79EE39F938F931A
:100E5000EDD384E79EE382D0BDDF8DB79EB70896C1
:100E60008DBF9EBFC114D104E104F10421F4C12C53
:100E7000D12C7601C394C0924C01D0924D01FF90C9
:100E8000EF90DF90CF9008951F920F920FB60F92C0
:100E900011242F933F934F935F936F937F938F937F
:100EA0009F93AF93BF93EF93FF93E0E4F1E08381CF
:100EB0008260838383E99EE930D081E080930C3E99
:100EC0008093DA3E18DFFF91EF91BF91AF919F9130
:100ED0008F917F916F915F914F913F912F910F90E3
:100EE0000FBE0F901F901895E0E0F8E085818068B4
:100EF0008583089583D9E0E0F8E08CE695E080876B
:100F0000918780EC8683F0DF0895E0E0F8E094813B
:100F100095FFFDCF809302080895EF92FF920F9303
:100F20001F93CF93DF938C017C01C0E0D0E005C01C
:100F3000F70181917F01E9DF2196F80101900020FE
:100F4000E9F73197E01BF10BCE17DF0788F3DF914C
:100F5000CF911F910F91FF90EF900895DEDF8AE00F
:100F6000D4DF80E0D2DF089588E99EE9F7DF0895B5
:100F7000E0E0F8E084818823ECF780910008089590
:100F8000CF92DF92EF92FF920F931F93CF93DF9355
:100F90007C016B016132710524F06894CC24C5F8A2
:100FA000D12CDD20C4F0E70100E010E07E010F5FEE
:100FB0001F4FDEDF89938A3021F0882311F08D30B6
:100FC00031F4F7011082C016D1063CF404C07E0152
:100FD000C016D1065CF7F7011082DF91CF911F9107
:100FE0000F91FF90EF90DF90CF900895CF93DF9314
:100FF00000D0CDB7DEB74AE050E0BE016F5F7F4F53
:101000009AD10F900F90DF91CF9108950F931F9376
:10101000CF93DF936EEE7EE38DE19EE3D1D26EE956
:101020007EE98EEE9EE3BFD2D82FC92F64E27CE921
:1010300080E090E0B8D2082F192F9F938F93CF9321
:10104000DF9380EA9EE99F938F9384E79EE39F93CB
:101050008F93ECD264EB7EE98D2F9C2FA8D22DB715
:101060003EB7285F3F4F2DBF3EBF892B39F480EB41
:101070009EE974DF89EB9EE971DF76DF62EC7EE941
:101080008D2F9C2F94D2892B49F48EEB9EE966DF3D
:10109000602F712F8DED9EE393D266DF69EC7EE9C0
:1010A0008D2F9C2F84D2892B59F485EC9EE956DF35
:1010B000602F712F85EC9EE383D281E08093153EF3
:1010C00060ED7EE98D2F9C2F72D2892B49F48CEC38
:1010D0009EE944DF81E08093143E1092DA3E44DFC3
:1010E00067ED7EE98D2F9C2F62D2892B39F483ED39
:1010F0009EE934DF81E08093133E36DF6AED7EE9BE
:101100008D2F9C2F54D2892B11F51F930F938DEDAA
:101110009EE99F938F9384E79EE39F938F9386D25C
:1011200084E79EE31BDF802F912F60DF6093D63E24
:101130007093D73E8093D83E9093D93E81E08093C0
:10114000113E0F900F900F900F900F900F906CEE3C
:101150007EE98D2F9C2F2BD2892B71F488EE9EE98E
:10116000FDDE602F712F84EA9EE32AD28AE080930D
:10117000B43E81E08093123E6FEE7EE98D2F9C2F6E
:1011800016D2892B19F481E08093103E66EF7EE938
:101190008D2F9C2F0CD2892B31F482EF9EE9DEDE5D
:1011A00081E080930F3E6DEF7EE98D2F9C2FFFD164
:1011B000892B31F489EF9EE9D1DE81E080930E3EE8
:1011C00064E07FE98D2F9C2FF2D1892B31F480E0F0
:1011D0009FE9C4DE81E080930D3E6BE07FE98D2FB7
:1011E0009C2FE5D1892B61F487E09FE9B7DE8091E0
:1011F0000B3E882329F010920B3E8EE09FE9AEDE75
:101200006EE17FE98D2F9C2FD2D1892B79F48AE171
:101210009FE9A4DE802F912F9FD18093613E909310
:10122000623E72DB81E08093093E9EDE65E27FE9EB
:101230008D2F9C2FBCD1892B69F481E29FE98EDE32
:10124000802F912F89D180935D3E90935E3E81E007
:101250008093083E6CE27FE98D2F9C2FA8D1892BCB
:1012600049F488E29FE97ADE84E69EE377DE109215
:10127000643E7ADE63E37FE98D2F9C2F98D1892B22
:1012800049F48FE29FE96ADE602F712F84E69EE3C6
:1012900097D16ADEDF91CF911F910F9108951F9230
:1012A0000F920FB60F9211242F933F934F935F939A
:1012B0006F937F938F939F93AF93BF93EF93FF931E
:1012C00060E270E08EEE9EE35BDE81E08093163E8E
:1012D000FF91EF91BF91AF919F918F917F916F910E
:1012E0005F914F913F912F910F900FBE0F901F90E4
:1012F0001895A1E21A2EAA1BBB1BFD010DC0AA1F47
:10130000BB1FEE1FFF1FA217B307E407F50720F06E
:10131000A21BB30BE40BF50B661F771F881F991FE9
:101320001A9469F760957095809590959B01AC0132
:10133000BD01CF010895A0E0B0E0E0EAF9E034C4D7
:101340005C016B017A016115710519F0FB01808365
:101350009183E114F10429F0C7010297839708F003
:10136000E2C0E5012196F5011081812F90E012D1B4
:10137000892B11F05E01F5CF1D3229F42196F5017C
:10138000118101E007C01B3221F4E5012296F5012D
:10139000118100E0E114F10409F1F0E1EF16F1042C
:1013A00029F43EC010E3E114F10421F128E0E21633
:1013B000F10401F154F4E2E0EE16F10421F5812C80
:1013C000912CA12CB0E4BB2E3DC0FAE0EF16F10445
:1013D00039F020E1E216F104B1F42FC0103311F11D
:1013E000FAE0EF2EF12CACEC8A2E982CA82CACE075
:1013F000BA2E28C078E0E72EF12C812C912CA12C5C
:10140000E0E1BE2E1FC060E070E080E090E8970150
:101410000F2C000C440B550B6CDF49015A0112C014
:10142000103359F488818F7D883509F0BBCF19813D
:101430002296026080E1E82EF12C812C912CA12CC7
:1014400068E0B62E40E060E070E0CB0127010F2C91
:10145000000C66087708FE0150ED352E310E29E0AC
:10146000231570F42FEB210F2A3118F439EC332EA9
:1014700006C02FE9210F2A3110F529EA322E310E4C
:10148000232D30E02E153F05D4F447FD15C08616F8
:101490009706A806B90668F0A30192016BD3630D05
:1014A000711D811D911D61307105810520E8920734
:1014B00010F04FEF01C041E021961081CCCF202FDA
:1014C0002170C114D10471F0442329F02197F60151
:1014D000C083D18307C001FF19C02297F601C083E2
:1014E000D18314C047FF12C0222329F060E070E0CE
:1014F00080E090E804C06FEF7FEF8FEF9FE722E27C
:1015000030E02093233F3093243F09C0222381F011
:1015100090958095709561957F4F8F4F9F4F462F87
:10152000372F282F12C040E030E020E090E00DC0BF
:1015300097FFF5CF82E290E08093233F9093243F82
:101540006FEF7FEF8FEF9FE7EACF642F732F822F2C
:10155000CDB7DEB7E1E141C3FC0188279927E894C4
:1015600021912032E9F3293010F02E30C8F32B32CC
:1015700041F02D3239F4689404C00E940E0B820FA2
:10158000911D219120532A30C0F31EF4909581952E
:101590009F4F089591110C94070D803219F08950D6
:1015A0008550C8F7089546E05EE311D00895FB0129
:1015B000DC018D91019080190110D9F3990B0895E8
:1015C000FB01DC0101900D920020E1F70895FA0182
:1015D000A191B081009719F41097E1F0CD01DC01E1
:1015E000CD010D90002011F4C00113C0FB01219129
:1015F000222319F02015D9F7F3CFFB0121912015F3
:1016000019F41E92119606C02223C1F70D900020F6
:10161000A1F7D001FA01A193B08308957AE0979FD2
:10162000902D879F802D910D11240895AEE0B0E09C
:10163000EBE1FBE0C6C20D891E8986E08C8309833D
:101640001A838FEF9FE78D839E83AE01475E5F4FC6
:101650006F89788DCE01019608D0EF81F885E00F73
:10166000F11F10822E96E4E0C5C2ABE0B0E0EAE3E1
:10167000FBE099C26C017B018A01FC011682178292
:10168000838181FFBFC1CE0101963C01F6019381A8
:10169000F70193FD859193FF81917F01882309F4E0
:1016A000ADC1853239F493FD859193FF81917F011E
:1016B000853221F4B60190E0C3D1E8CF912C212CE2
:1016C000312CFFE1F315D8F08B3279F038F4803209
:1016D00079F08332A1F4232D20611DC08D3261F099
:1016E000803369F4232D216016C0832D8260382E4B
:1016F000E32DE4603E2E2AC0F32DF8601DC037FCB8
:101700002DC020ED280F2A3040F08E32B9F436FC7F
:1017100075C1232D2064322E19C036FE06C08AE022
:10172000989E200D1124922E11C0EAE02E9E200DCD
:101730001124222EF32DF0623F2E08C08C3621F4A6
:10174000832D8068382E02C0883641F4F70193FD5E
:10175000859193FF81917F018111B3CF982F9F7D58
:101760009554933028F40C5F1F4F9FE399830DC06D
:10177000833631F0833771F0833509F055C020C0CE
:10178000F801808189830E5F1F4F88248394912CF8
:10179000530112C02801F2E04F0E511CF801A08045
:1017A000B18036FE03C0692D70E002C06FEF7FEF9D
:1017B000C5013BD14C018201F32DFF773F2E15C0AF
:1017C000280122E0420E511CF801A080B18036FEB3
:1017D00003C0692D70E002C06FEF7FEFC5011AD121
:1017E0004C01F32DF0683F2E820133FC19C0822D8D
:1017F00090E088169906A0F4B60180E290E020D12E
:101800002A94F5CFF50137FC859137FE81915F0170
:10181000B60190E015D121102A9421E0821A910896
:101820008114910479F7E1C0843611F0893639F5D5
:10183000F80137FE07C060817181828193810C5F5E
:101840001F4F08C060817181072E000C880B990B17
:101850000E5F1F4FF32DFF763F2E97FF09C0909527
:101860008095709561957F4F8F4F9F4FF0683F2E09
:101870002AE030E0A30120D1882E861844C08537A5
:1018800031F4232D2F7EB22E2AE030E025C0932D97
:10189000997FB92E8F36C1F018F4883579F0AEC033
:1018A000803719F0883721F0A9C0E92FE061BE2EFA
:1018B000B4FE0DC0FB2DF460BF2E09C034FE0AC07B
:1018C000292F2660B22E06C028E030E005C020E1B6
:1018D00030E002C020E132E0F801B7FE07C06081CD
:1018E0007181828193810C5F1F4F06C0608171817D
:1018F00080E090E00E5F1F4FA301DED0882E861897
:10190000FB2DFF773F2E36FE0DC0232D2E7FA22EFE
:10191000891458F434FE0BC032FC09C0832D8E7E2E
:10192000A82E05C0B82CA32C03C0B82C01C0B92C1C
:10193000A4FE0FC0FE01E80DF11D8081803321F46B
:101940009A2D997EA92E09C0A2FE06C0B394B39425
:1019500004C08A2D867809F0B394A3FC10C0A0FEC1
:1019600006C0B21480F4280C922C9B180DC0B2143F
:1019700058F4B60180E290E063D0B394F8CFB2148B
:1019800018F42B1802C0982C212CA4FE0FC0B6010D
:1019900080E390E055D0A2FE16C0A1FC03C088E70A
:1019A00090E002C088E590E0B6010CC08A2D8678F0
:1019B00051F0A1FE02C08BE201C080E2A7FC8DE2E3
:1019C000B60190E03DD0891430F4B60180E390E098
:1019D00037D09A94F8CF8A94F301E80DF11D8081F5
:1019E000B60190E02DD08110F6CF222009F44ECE22
:1019F000B60180E290E024D02A94F7CFF6018681E8
:101A0000978102C08FEF9FEF2B96E2E1E5C0992707
:101A100088270895FC010590615070400110D8F7A7
:101A2000809590958E0F9F1F0895FC016150704026
:101A300001900110D8F7809590958E0F9F1F089503
:101A40000F931F93CF93DF93FB01238121FD03C0ED
:101A50008FEF9FEF2CC022FF16C046815781248153
:101A600035814217530744F4A081B1819D012F5F56
:101A70003F4F208331838C93268137812F5F3F4FE7
:101A80002683378314C08B01EC01FB010084F185B0
:101A9000E02D0995892BE1F6D80116968D919C9140
:101AA0001797019616968D939C931797CE01DF9109
:101AB000CF911F910F910895FA01AA27283051F173
:101AC000203181F1E8946F936E7F6E5F7F4F8F4F6F
:101AD0009F4FAF4FB1E03ED0B4E03CD0670F781FCE
:101AE000891F9A1FA11D680F791F8A1F911DA11DB3
:101AF0006A0F711D811D911DA11D20D009F46894EC
:101B00003F912AE0269F11243019305D3193DEF693
:101B1000CF010895462F4770405D4193B3E00FD049
:101B2000C9F7F6CF462F4F70405D4A3318F0495D34
:101B300031FD4052419302D0A9F7EACFB4E0A69517
:101B40009795879577956795BA95C9F70097610539
:101B5000710508959B01AC010A2E0694579547958F
:101B600037952795BA95C9F7620F731F841F951F84
:101B7000A01D0895DB018F939F930BD0BF91AF9170
:101B8000A29F800D911DA39F900DB29F900D1124D7
:101B900008953AD0A59F900DB49F900DA49F800DFD
:101BA000911D112408952F923F924F925F926F9250
:101BB0007F928F929F92AF92BF92CF92DF92EF92DD
:101BC000FF920F931F93CF93DF93CDB7DEB7CA1B5E
:101BD000DB0BCDBFDEBF09942A88398848885F8433
:101BE0006E847D848C849B84AA84B984C884DF80BD
:101BF000EE80FD800C811B81AA81B981CE0FD11DA1
:101C0000CDBFDEBFED010895A29FB001B39FC0011B
:101C1000A39F01D0B29F700D811D1124911D0895C5
:041C2000F894FFCF66
:101C2400000062616420495352006D656E75206343
:101C34006F756E7465723A2025640A006F7574209E
:101C44006F66206C6F6F7000676F696E6720746FCA
:101C540020736C656570202E2E2E0A0030392E30CC
:101C6400312E313939302031323A3537004261630F
:101C74006B7570205365727665720A737461727441
:101C8400696E672075702100493A53544152544596
:101C94004400433A48656C6C6F0D0A0052656365F5
:101CA4006976656420536875742D0A646F776E20B5
:101CB40052657175657374210057696C6C20776186
:101CC4006B6520757020696E20256C6420736563D4
:101CD4006F6E64730A0043433A25640054503A25F6
:101CE400640033563A25640053686F77206E657834
:101CF400742042552020203E0A416374696F6E733C
:101D040020202020202020203E00446F20426163B8
:101D14006B7570204E6F7720203E0A57616B6520EB
:101D2400666F7220636F6E6669673E0053757265F5
:101D34003F202020202020204E6F203E0A202020FB
:101D44002020202020202020596573203E00537538
:101D540072653F202020202020596573203E0A20F0
:101D640020202020202020202020204E6F203E00F4
:101D74004554413A202020202530326C753A2530D4
:101D8400326C753A2530326C750045544120256C0F
:101D94007520202530326C753A2530326C753A2521
:101DA40030326C750045544120256C756420253013
:101DB400326C753A2530326C753A2530326C7500C8
:101DC40057616B696E672042435520616E640A64F3
:101DD4006F204261636B7570206E6F77202E2E002A
:101DE40057525F4241434B55500057616B696E67D0
:101DF4002042435520666F720A436F6E66696775A9
:101E0400726174696F6E2E2E0057525F434F4E46B7
:101E1400494700534420696E3A20256400424355E3
:101E2400207374617274696E6720757000506C65FC
:101E34006173652077616974202E2E2E00576169C5
:101E440074696E6720666F72204243550A484220C7
:101E5400746F2073746F700057616974696E6720C2
:101E6400666F72203356330A746F20676F206C6F6D
:101E7400770057726974696E6720256C6420746FEB
:101E840020434D502052656769737465720A00439C
:101E94004D500A005265616479003A004D433A207E
:101EA40025732C20504C3A2025730A0041434B3AA9
:101EB40054657374004563686F0041434B3A443181
:101EC4000041434B3A44320041434B3A53520041A0
:101ED400434B3A53410042550041434B3A42553A31
:101EE40025730A0041434B3A425200534200414396
:101EF4004B3A43430041434B3A54500041434B3A1D
:101F040033560041434B3A4F4E005573657220429D
:101F140061636B75700041434B3A44420041434B4B
:101F24003A444C0041434B3A57520041434B3A57D1
:021F3400440067
:061F36000101B0041400DB
:00000001FF
