:1000000019C033C032C00CC133C12FC008C72DC0C6
:100010002CC02BC080C129C028C027C026C025C045
:1000200024C023C022C021C020C01FC0C9C81DC019
:100030001CC01BC011241FBECFEFCDBFDFE3DEBF4E
:100040001EE3A0E0BEE3EFEEFDE102C005900D92DD
:10005000A430B107D9F72EE3A4E0BEE301C01D929E
:10006000AE3FB207E1F728D26CCD1EC1E0E0F6E06A
:10007000808180830895E0E0F6E080818160808364
:100080000895F4DF80E38093A000F5DF0895E0E0B9
:10009000F6E0838580FFFDCF08951F93CF93DF9314
:1000A000C0E0D6E011E01887F2DF1B87DF91CF9127
:1000B0001F910895CF93DF93C0E0D6E085E08E8353
:1000C000ECDF88899989DF91CF910895CF93DF93F1
:1000D000C0E0D6E081E08E83E0DF88899989DF91F6
:1000E000CF910895CF93DF93C0E0D6E08EE18E8369
:1000F000D4DF88899989DF91CF910895DBDF21E0F2
:100100008538934008F420E0822F089510925D3ED8
:1001100010925C3E0895E0E0F4E08189887F818B55
:1001200081898460818B8589887F858B85898460BE
:10013000858B0895E0E0F4E080E88683818380E4A5
:10014000818380E1858381838CE0828382898860DA
:10015000828B83898860838BE0E2F4E083E1818392
:1001600080E28283A0E4B4E08FE011968C93119733
:1001700015961C9281E08183CEDF0895809108045A
:1001800086958695869591E08927817090E00895FF
:10019000E0E0F4E082898360828B83898360838BD3
:1001A00008951816190644F48091603E882321F0C2
:1001B00081E080932504089581E0809326040895CA
:1001C000E0E0F4E080E8858392E49A95F1F700C0DE
:1001D000868382E48A95F1F700C00895E0E4F4E0B4
:1001E0009481907F948394818F70982B9483089549
:1001F00080E480930504089580E4809306040895C4
:10020000E0E2F4E084E085838183089584E08093D4
:1002100026040895E0E2F4E085898960858B0895DD
:100220001F920F920FB60F9211248F93EF93FF93AB
:100230008091090482FF08C081E080935D3EE9E07F
:10024000F4E08081847080838091090483FF08C07A
:1002500081E08093153EE9E0F4E08081887080833E
:10026000FF91EF918F910F900FBE0F901F901895F7
:100270001F920F920FB60F9211248F93EF93FF935B
:100280008091290485FF08C081E080935C3EE9E20B
:10029000F4E0808180728083FF91EF918F910F90C5
:1002A0000FBE0F901F9018951F920F920FB60F92CE
:1002B00011242F933F934F935F936F937F938F936B
:1002C0009F93AF93BF93EF93FF9388E49BE911D67D
:1002D000FF91EF91BF91AF919F918F917F916F911E
:1002E0005F914F913F912F910F900FBE0F901F90F4
:1002F0001895E0E0FAE08BE29AE086A397A381E00C
:100300008287089587DFF5DF089580915C3E811133
:1003100010925C3E08951F920F920FB60F92112417
:100320001092143E0F900FBE0F901F901895909151
:100330005D3E8091153E811102C0992341F01092DB
:100340005D3E1092153E81E08093C73ED6D42FEFDC
:1003500080E792E0215080409040E1F700C000002B
:100360000895EF92FF921F93CF93DF938091083E01
:100370008823B9F01092083E84EB94E08093023E0B
:100380009093033E8AE095E08093183E9093193E47
:1003900085EC94E08093163E9093173E81E090E0C8
:1003A00000DFE091023EF091033E09952FEF80E7D8
:1003B00092E0215080409040E1F700C00000109290
:1003C000C83E1092C93E0F2EF0E5EF2EFBE9FF2E3E
:1003D000F02DC1E6DEE329C08FE19EE40197F1F73D
:1003E00000C000008091C93E8F938091C83E8F93DA
:1003F000FF92EF92DF93CF93AAD8CE0159D5809187
:10040000C83E9091C93E01968093C83E9093C93EE4
:100410000F900F900F900F900F900F908D32914092
:1004200020F081E080930E3E09C010915D3EA6DE73
:1004300021E0892B09F020E0121770F282E69BE997
:1004400037D580915D3E882339F010925D3EE09172
:10045000183EF091193E099591DE892B39F01092E2
:10046000153EE091163EF091173E099580910E3EA3
:10047000882349F08EE69BE91BD510920E3E109220
:10048000C73E80E03AD4DF91CF911F91FF90EF906B
:1004900008953CDE4FDE36DF7BDEF7D435D1F1DD6B
:1004A00081E1E2E8FBE9A1E9BEE301900D928A95C2
:1004B000E1F7FDD178940895ECDF83E99BE9D4D18D
:1004C00087EA9BE9F5D481E090E06BDE82E08093DF
:1004D000603EC1E9D2E00F2EF1EBCF2EF1E0DF2E2E
:1004E000F02D0F2EF7E9EF2EF1E0FF2EF02D8E010B
:1004F0008091603E813039F020F0823029F4E801AB
:1005000003C0E70101C0E601FE010995F1CFE0E576
:10051000F0E0808182608083808181608083889523
:10052000089581E090E03DDEF0DE8091143E81117F
:1005300001C06CDE80915D3E882319F010925D3E13
:10054000FAD18091153E882329F01092153E81EB57
:100550009BE9AED48091133E882319F022D51092E6
:10056000133E8091123E882359F01092123E8FD193
:100570008AEC9EE379D16ED182EB9EE375D1BFD434
:100580008091113E882361F082D18BEB9BE96CD185
:100590001092113E8091C73EB0D381E080930E3E11
:1005A0008091103E882339F072D181E99EE35CD1BD
:1005B0001092103EA4D480910F3E882311F18091B7
:1005C000C63E8F938091C53E8F938091C43E8F939A
:1005D0008091C33E8F9388ED9BE99F938F9381E633
:1005E0009EE39F938F93B3D781E69EE382D41092CC
:1005F0000F3ED9D3CCD383D48DB79EB708968DBF89
:100600009EBF80910E3E882379F010920E3E8EE6BA
:100610009BE96FD49FEF20E782E09150204080401B
:10062000E1F700C0000073DF80910D3E8823C1F028
:1006300010920D3E4BDD9F938F9385EF9BE99F9327
:100640008F9381E69EE39F938F9381D781E69EE30C
:1006500050D455D40F900F900F900F900F900F9093
:1006600080910C3E8823C1F010920C3E3BDD9F939D
:100670008F938BEF9BE99F938F9381E69EE39F93EC
:100680008F9365D781E69EE334D439D40F900F90D1
:100690000F900F900F900F9080910B3E8823C1F028
:1006A00010920B3E07DD9F938F9381E09CE99F930F
:1006B0008F9381E69EE39F938F9349D781E69EE3D4
:1006C00018D41DD40F900F900F900F900F900F9093
:1006D0008091073E81111092073E8091063E88234B
:1006E00041F01092063E80915A3E90915B3E15D1AA
:1006F00006D49FEF20E782E0915020408040E1F750
:1007000000C000001DD108952FE78AE196E0215036
:1007100080409040E1F700C000006EDD83E05EDDC8
:1007200081E04EDD87E893E10197F1F700C000001A
:1007300083E054DD81E044DD87E893E10197F1F740
:1007400000C0000083E04ADD81E03ADD87E893E104
:100750000197F1F700C0000082E040DD81E030DD6C
:1007600087E893E10197F1F700C0000082E036DDF1
:1007700081E026DD87E893E10197F1F700C00000F2
:1007800088E02CDD81E01CDD87E893E10197F1F73B
:1007900000C0000080E022DD81E012DD87E893E107
:1007A0000197F1F700C000008CE018DD81E008DD62
:1007B00087E893E10197F1F700C0000080E00EDDCB
:1007C00081E0FEDC87E893E10197F1F700C00000CB
:1007D00086E004DD81E0F4DC87E893E10197F1F73E
:1007E00000C0000080E0FADC81E0EADC87E893E109
:1007F0000197F1F700C0000086E0F0DC81E0E0DC6A
:1008000087E893E10197F1F700C0000080E0E6DCA3
:1008100081E0D6DC87E893E10197F1F700C00000A2
:1008200081E0DCDC81E0CCDC87E893E10197F1F743
:1008300000C000000895CF93C82FDADC8C2F82957A
:100840008F70CCDC81E0BCDC8C2FC8DC81E0B8DCB4
:10085000CF910895D1DC8CE0C1DC81E0B1DC80E097
:10086000BDDC81E0ADDC0895CF93DF93EC01C0DC0B
:100870008881882349F021968A3011F4EBDF01C08A
:10088000DADF89918111F8CFDF91CF910895B4DC3F
:1008900080E0A4DC81E094DC81E0A0DC81E090DCFD
:1008A00087EA91E60197F1F700C000000895E0E0C3
:1008B000FAE082858E78828781818360818380815E
:1008C00080838FEF9FEF86AB97AB21852E7F2187AB
:1008D000A0E0B2E012962C911297226012962C930F
:1008E00021812061218321812062218320E031E068
:1008F00020935E3E30935F3E20A731A780935A3EFF
:1009000090935B3E82A793A7808181608083089546
:100910008093280A9093290A089580932A0A909335
:100920002B0A089580915A3E90915B3E80932A0A4B
:1009300090932B0A089510922A0A10922B0A089578
:1009400080912A0A90912B0A892B11F4EBDF0895EC
:1009500010922A0A10922B0A089584EB94E0809357
:10096000023E9093033E089592DF87E09CE97CDF8E
:100970008AE095E08093183E9093193E85EC94E0D0
:100980008093163E9093173E089585EC94E08093F3
:10099000023E9093033E7BDF89E29CE965DF8CEDAC
:1009A00094E08093183E9093193E83EF94E08093F7
:1009B000163E9093173E08958CED94E08093023E8E
:1009C0009093033E64DF8BE49CE94EDF8DEA94E074
:1009D0008093183E9093193E85E396E08093163EEF
:1009E0009093173E089583EF94E08093023E909396
:1009F000033E4DDF8DE69CE937DF81E496E080938E
:100A0000183E9093193E8DEA94E08093163E9093A1
:100A1000173E08952F923F924F925F926F927F926E
:100A20008F929F92AF92BF92CF92DF92EF92FF92FE
:100A30000F931F93CF93DF9300D000D0CDB7DEB7D5
:100A40008AE095E08093023E9093033E80904C01B3
:100A500090904D018091480190914901881A990A1E
:100A6000A12CB12C880C991CAA1CBB1C880C991CAD
:100A7000AA1CBB1C880C991CAA1CBB1C880C991CAA
:100A8000AA1CBB1C880C991CAA1CBB1CC501B40168
:100A900020E831E541E050E0BDD32B833C83142FA7
:100AA000052FC22ED32EE42EF52EC114D104E1045D
:100AB000F104B9F4ABC00197F1F780E8881A81E539
:100AC000980A81E0A80AB1082F5F3F4FC901032EA1
:100AD000000CAA0BBB0B8C159D05AE05BF0518F0CD
:100AE00005C020E030E088E190E0E5CFC501B40129
:100AF00020E13EE040E050E08DD3B22EA32E942EB4
:100B0000852E422E532E642E752E2CE330E040E0CD
:100B100050E080D3222E332EB42FA52FF62F7983C9
:100B20008A83E92FC114D104E104F10439F0EAE029
:100B3000CE16D104E104F104C8F51AC0EF938A81FE
:100B40008F9399819F93FF93AF93BF933F922F927F
:100B50007F926F925F924F928FE89CE99F938F9361
:100B600081E69EE39F938F93F2D4CDBFDEBF3BC05F
:100B70009F938F937F936F935F934F933F932F93A5
:100B80008F929F92AF92BF920F931F939C819F93DE
:100B9000EB81EF9389EA9CE99F938F9381E69EE333
:100BA0009F938F93D4D4CDBFDEBF1DC09F938F93EF
:100BB0007F936F935F934F933F932F938F929F9267
:100BC000AF92BF920F931F939C819F93EB81EF9302
:100BD00084EC9CE99F938F9381E69EE39F938F9390
:100BE000B6D4CDBFDEBF53DE81E99EE33DDE32DE0B
:100BF00081E69EE339DE8DEA94E08093183E90937F
:100C0000193E8093163E9093173E19C0C501B4015A
:100C100020E13EE040E050E0FDD2422E532E642E13
:100C2000752E2CE330E040E050E0F4D2222E332E3B
:100C3000B42FA52FF62F79838A83E92F7FCF2496AF
:100C4000CDBFDEBFDF91CF911F910F91FF90EF904D
:100C5000DF90CF90BF90AF909F908F907F906F90DC
:100C60005F904F903F902F90089511DE8EED9CE99C
:100C7000FBDD81E08093093E82E08093C73E3DD05A
:100C8000089505DE8EED9CE9EFDD82E08093C73E9E
:100C900034D00895E0E0F4E084818061848381E0D1
:100CA0008093013E0895E0E0F4E084818F7E8483A8
:100CB0001092013E0895E0E2F4E084818D7F848308
:100CC00081E08093003E0895E0E2F4E08481826058
:100CD00084831092003E0895DADD8EEF9CE9C4DD36
:100CE0008091143E8111FECFD2DD89E19DE9BCDD0A
:100CF00005DA8111FDCF81E00895CF93813091F025
:100D000018F0823001F136C08091603E823009F4E3
:100D1000E3DFDADF80E090E044DA0DDEC4DF10923A
:100D2000603E28C0C1E0C093603E32DAB3DF86E4A3
:100D300090E10197F1F700C0E7DCC093083E809195
:100D40000A3E8823B9F080E1E3E3FDE9AAECBEE3C3
:100D500001900D928A95E1F780E1E3E4FDE9A2EBD1
:100D6000BEE301900D928A95E1F794DFA4DF82E063
:100D70008093603ECF910895E0E4F1E01086118603
:100D80000895E0E4F1E081818111FDCF0895109292
:100D90000A3EF7DFE0E4F1E081ED808382E08283C8
:100DA00081E087830895CF92DF92EF92FF92C09007
:100DB000C33ED090C43EE090C53EF090C63EFF20BA
:100DC0002CF48FE1C80ED11CE11CF11C689414F8BE
:100DD000F594E794D794C7941694D1F7FF92EF92C5
:100DE000DF92CF9283E59DE99F938F9381E69EE307
:100DF0009F938F93ACD381E69EE37BD0BDDF8C2D98
:100E00009D2D80934C0190934D018DB79EB7089610
:100E10008DBF9EBFFF90EF90DF90CF9008951F92FF
:100E20000F920FB60F9211242F933F934F935F931E
:100E30006F937F938F939F93AF93BF93EF93FF93A2
:100E4000E0E4F1E083818260838380E79DE930D034
:100E500081E080930A3E8093C73E4FDFFF91EF9180
:100E6000BF91AF919F918F917F916F915F914F91C2
:100E70003F912F910F900FBE0F901F901895E0E0BB
:100E8000F8E08581806885830895BAD9E0E0F8E0CC
:100E90008CE695E08087918780EC8683F0DF08956B
:100EA000E0E0F8E0948195FFFDCF8093020808957B
:100EB000EF92FF920F931F93CF93DF938C017C01EE
:100EC000C0E0D0E005C0F70181917F01E9DF219604
:100ED000F80101900020E9F73197E01BF10BCE17E4
:100EE000DF0788F3DF91CF911F910F91FF90EF9073
:100EF0000895DEDF8AE0D4DF80E0D2DF089585E761
:100F00009DE9F7DF0895E0E0F8E084818823ECF7BD
:100F1000809100080895CF92DF92EF92FF920F9395
:100F20001F93CF93DF937C016B016132710524F035
:100F30006894CC24C5F8D12CDD20C4F0E70100E092
:100F400010E07E010F5F1F4FDEDF89938A3021F0B2
:100F5000882311F08D3031F4F7011082C016D106CC
:100F60003CF404C07E01C016D1065CF7F701108284
:100F7000DF91CF911F910F91FF90EF90DF90CF9075
:100F80000895CF93DF9300D0CDB7DEB74AE050E0AD
:100F9000BE016F5F7F4F60D10F900F90DF91CF91B7
:100FA00008950F931F93CF93DF936BED7EE38AE158
:100FB0009EE397D26BE77DE98BED9EE389D2892B87
:100FC00019F480E89DE995DF65E87DE98BED9EE306
:100FD0007BD2D82FC92F66E47BE980E090E074D201
:100FE000082F192F9F938F93CF93DF9387E89DE965
:100FF0009F938F9381E69EE39F938F93A8D26BE993
:101000007DE98D2F9C2F64D22DB73EB7285F3F4FCF
:101010002DBF3EBF892B41F487E99DE96ADF602F30
:10102000712F8AEC9EE35DD262EA7DE98D2F9C2FC1
:101030004FD2892B59F48EE99DE95BDF602F712F28
:1010400082EB9EE34ED281E08093123E6DE47BE919
:101050008D2F9C2F3DD2892B29F481E08093113E66
:101060001092C73E65EA7DE98D2F9C2F31D2892BE6
:1010700011F51F930F9388EA9DE99F938F9381E663
:101080009EE39F938F9363D281E69EE332DF802FAE
:10109000912F77DF6093C33E7093C43E8093C53E2B
:1010A0009093C63E81E080930F3E0F900F900F907B
:1010B0000F900F900F9063EB7DE98D2F9C2F08D23E
:1010C000892B59F4602F712F81E99EE30AD28AE0BF
:1010D0008093A13E81E08093103E66EB7DE98D2FE9
:1010E0009C2FF6D1892B19F481E080930E3E6DEB95
:1010F0007DE98D2F9C2FECD1892B31F489EB9DE973
:10110000F8DE81E080930D3E64EC7DE98D2F9C2F0D
:10111000DFD1892B31F480EC9DE9EBDE81E0809317
:101120000C3E6BEC7DE98D2F9C2FD2D1892B31F4B5
:1011300087EC9DE9DEDE81E080930B3E62ED7DE988
:101140008D2F9C2FC5D1892B61F48EEC9DE9D1DECA
:101150008091093E882329F01092093E85ED9DE992
:10116000C8DE65EE7DE98D2F9C2FB2D1892B79F4F5
:1011700081EE9DE9BEDE802F912F7FD180935E3E70
:1011800090935F3EC5DB81E08093073EB8DE6CEE56
:101190007DE98D2F9C2F9CD1892B69F488EE9DE9E8
:1011A000A8DE802F912F69D180935A3E90935B3EA9
:1011B00081E08093063EDF91CF911F910F910895BA
:1011C0001F920F920FB60F9211242F933F934F93BC
:1011D0005F936F937F938F939F93AF93BF93EF939F
:1011E000FF9360E270E08BED9EE395DE81E08093FB
:1011F000133EFF91EF91BF91AF919F918F917F919E
:101200006F915F914F913F912F910F900FBE0F9073
:101210001F901895A1E21A2EAA1BBB1BFD010DC041
:10122000AA1FBB1FEE1FFF1FA217B307E407F50796
:1012300020F0A21BB30BE40BF50B661F771F881F72
:10124000991F1A9469F760957095809590959B0108
:10125000AC01BD01CF010895A0E0B0E0E1E3F9E009
:1012600034C45C016B017A016115710519F0FB0151
:1012700080839183E114F10429F0C70102978397D9
:1012800008F0E2C0E5012196F5011081812F90E080
:1012900012D1892B11F05E01F5CF1D3229F4219670
:1012A000F501118101E007C01B3221F4E50122960E
:1012B000F501118100E0E114F10409F1F0E1EF160C
:1012C000F10429F43EC010E3E114F10421F128E017
:1012D000E216F10401F154F4E2E0EE16F10421F516
:1012E000812C912CA12CB0E4BB2E3DC0FAE0EF166E
:1012F000F10439F020E1E216F104B1F42FC010330B
:1013000011F1FAE0EF2EF12CACEC8A2E982CA82CDF
:10131000ACE0BA2E28C078E0E72EF12C812C912C7D
:10132000A12CE0E1BE2E1FC060E070E080E090E8FC
:1013300097010F2C000C440B550B6CDF49015A012F
:1013400012C0103359F488818F7D883509F0BBCFE6
:1013500019812296026080E1E82EF12C812C912CDB
:10136000A12C68E0B62E40E060E070E0CB012701E0
:101370000F2C000C66087708FE0150ED352E310E5B
:1013800029E0231570F42FEB210F2A3118F439ECE2
:10139000332E06C02FE9210F2A3110F529EA322E0B
:1013A000310E232D30E02E153F05D4F447FD15C036
:1013B00086169706A806B90668F0A30192016BD3BA
:1013C000630D711D811D911D61307105810520E83E
:1013D000920710F04FEF01C041E021961081CCCF71
:1013E000202F2170C114D10471F0442329F02197DA
:1013F000F601C083D18307C001FF19C02297F6010F
:10140000C083D18314C047FF12C0222329F060E0BB
:1014100070E080E090E804C06FEF7FEF8FEF9FE710
:1014200022E230E02093FC3E3093FD3E09C02223AF
:1014300081F090958095709561957F4F8F4F9F4F6C
:10144000462F372F282F12C040E030E020E090E0F8
:101450000DC097FFF5CF82E290E08093FC3E909321
:10146000FD3E6FEF7FEF8FEF9FE7EACF642F732F83
:10147000822FCDB7DEB7E1E141C3FC018827992770
:10148000E89421912032E9F3293010F02E30C8F38E
:101490002B3241F02D3239F4689404C00E949F0A27
:1014A000820F911D219120532A30C0F31EF4909594
:1014B00081959F4F089591110C94980C803219F0EA
:1014C00089508550C8F7089544E05EE311D008952F
:1014D000FB01DC018D91019080190110D9F3990B6A
:1014E0000895FB01DC0101900D920020E1F70895C1
:1014F000FA01A191B081009719F41097E1F0CD01A4
:10150000DC01CD010D90002011F4C00113C0FB01DE
:101510002191222319F02015D9F7F3CFFB01219156
:10152000201519F41E92119606C02223C1F70D90C2
:101530000020A1F7D001FA01A193B08308957AE0C9
:10154000979F902D879F802D910D11240895AEE0D7
:10155000B0E0ECEAFAE0C6C20D891E8986E08C8311
:1015600009831A838FEF9FE78D839E83AE01475EC9
:101570005F4F6F89788DCE01019608D0EF81F88595
:10158000E00FF11F10822E96E4E0C5C2ABE0B0E0A0
:10159000EBECFAE099C26C017B018A01FC01168236
:1015A0001782838181FFBFC1CE0101963C01F60104
:1015B0009381F70193FD859193FF81917F018823AA
:1015C00009F4ADC1853239F493FD859193FF819182
:1015D0007F01853221F4B60190E0C3D1E8CF912C90
:1015E000212C312CFFE1F315D8F08B3279F038F44F
:1015F000803279F08332A1F4232D20611DC08D3219
:1016000061F0803369F4232D216016C0832D826040
:10161000382EE32DE4603E2E2AC0F32DF8601DC065
:1016200037FC2DC020ED280F2A3040F08E32B9F45F
:1016300036FC75C1232D2064322E19C036FE06C03B
:101640008AE0989E200D1124922E11C0EAE02E9E71
:10165000200D1124222EF32DF0623F2E08C08C366F
:1016600021F4832D8068382E02C0883641F4F701BA
:1016700093FD859193FF81917F018111B3CF982FC5
:101680009F7D9554933028F40C5F1F4F9FE39983FF
:101690000DC0833631F0833771F0833509F055C0C2
:1016A00020C0F801808189830E5F1F4F88248394B6
:1016B000912C530112C02801F2E04F0E511CF80189
:1016C000A080B18036FE03C0692D70E002C06FEFCC
:1016D0007FEFC5013BD14C018201F32DFF773F2EF7
:1016E00015C0280122E0420E511CF801A080B180F3
:1016F00036FE03C0692D70E002C06FEF7FEFC501B9
:101700001AD14C01F32DF0683F2E820133FC19C031
:10171000822D90E088169906A0F4B60180E290E050
:1017200020D12A94F5CFF50137FC859137FE8191C0
:101730005F01B60190E015D121102A9421E0821AB0
:1017400091088114910479F7E1C0843611F089364B
:1017500039F5F80137FE07C060817181828193817C
:101760000C5F1F4F08C060817181072E000C880B31
:10177000990B0E5F1F4FF32DFF763F2E97FF09C089
:1017800090958095709561957F4F8F4F9F4FF06832
:101790003F2E2AE030E0A30120D1882E861844C0D5
:1017A000853731F4232D2F7EB22E2AE030E025C07C
:1017B000932D997FB92E8F36C1F018F4883579F0C2
:1017C000AEC0803719F0883721F0A9C0E92FE06159
:1017D000BE2EB4FE0DC0FB2DF460BF2E09C034FE3A
:1017E0000AC0292F2660B22E06C028E030E005C0CE
:1017F00020E130E002C020E132E0F801B7FE07C08E
:1018000060817181828193810C5F1F4F06C060816E
:10181000718180E090E00E5F1F4FA301DED0882E23
:101820008618FB2DFF773F2E36FE0DC0232D2E7F11
:10183000A22E891458F434FE0BC032FC09C0832D4B
:101840008E7EA82E05C0B82CA32C03C0B82C01C0D6
:10185000B92CA4FE0FC0FE01E80DF11D808180337C
:1018600021F49A2D997EA92E09C0A2FE06C0B39438
:10187000B39404C08A2D867809F0B394A3FC10C0F9
:10188000A0FE06C0B21480F4280C922C9B180DC048
:10189000B21458F4B60180E290E063D0B394F8CF6C
:1018A000B21418F42B1802C0982C212CA4FE0FC0DF
:1018B000B60180E390E055D0A2FE16C0A1FC03C0A3
:1018C00088E790E002C088E590E0B6010CC08A2D60
:1018D000867851F0A1FE02C08BE201C080E2A7FC35
:1018E0008DE2B60190E03DD0891430F4B60180E37A
:1018F00090E037D09A94F8CF8A94F301E80DF11D67
:101900008081B60190E02DD08110F6CF222009F41D
:101910004ECEB60180E290E024D02A94F7CFF601B3
:101920008681978102C08FEF9FEF2B96E2E1E5C0A1
:10193000992788270895FC01059061507040011097
:10194000D8F7809590958E0F9F1F0895FC016150E8
:10195000704001900110D8F7809590958E0F9F1FD1
:1019600008950F931F93CF93DF93FB01238121FDF4
:1019700003C08FEF9FEF2CC022FF16C04681578116
:10198000248135814217530744F4A081B1819D0120
:101990002F5F3F4F208331838C93268137812F5FC8
:1019A0003F4F2683378314C08B01EC01FB01008479
:1019B000F185E02D0995892BE1F6D80116968D91D8
:1019C0009C911797019616968D939C931797CE012D
:1019D000DF91CF911F910F910895FA01AA27283026
:1019E00051F1203181F1E8946F936E7F6E5F7F4FEC
:1019F0008F4F9F4FAF4FB1E03ED0B4E03CD0670F68
:101A0000781F891F9A1FA11D680F791F8A1F911DBA
:101A1000A11D6A0F711D811D911DA11D20D009F40A
:101A200068943F912AE0269F11243019305D31934C
:101A3000DEF6CF010895462F4770405D4193B3E035
:101A40000FD0C9F7F6CF462F4F70405D4A3318F0DC
:101A5000495D31FD4052419302D0A9F7EACFB4E08D
:101A6000A6959795879577956795BA95C9F7009745
:101A70006105710508959B01AC010A2E06945795E6
:101A8000479537952795BA95C9F7620F731F841F3D
:101A9000951FA01D0895DB018F939F930BD0BF91DD
:101AA000AF91A29F800D911DA39F900DB29F900DAD
:101AB000112408953AD0A59F900DB49F900DA49F36
:101AC000800D911D112408952F923F924F925F92A5
:101AD0006F927F928F929F92AF92BF92CF92DF923E
:101AE000EF92FF920F931F93CF93DF93CDB7DEB7A3
:101AF000CA1BDB0BCDBFDEBF09942A883988488812
:101B00005F846E847D848C849B84AA84B984C88419
:101B1000DF80EE80FD800C811B81AA81B981CE0F10
:101B2000D11DCDBFDEBFED010895A29FB001B39FCF
:101B3000C001A39F01D0B29F700D811D1124911D82
:061B40000895F894FFCFA8
:101B4600000062616420495352006D656E75206322
:101B56006F756E7465723A2025640A006F7574207D
:101B66006F66206C6F6F7000676F696E6720746FA9
:101B760020736C656570202E2E2E0A0030392E30AB
:101B8600312E313939302031323A353700537461CC
:101B96006E64627920556E69740A72656164792192
:101BA60000493A5354415254454400433A48656CFF
:101BB6006C6F0D0A0052656365697665642053682B
:101BC60075742D0A646F776E20526571756573742E
:101BD600210057696C6C2077616B652075702069F0
:101BE6006E20256C64207365636F6E64730A004310
:101BF600433A25640054503A25640033563A256426
:101C06000053686F77206E65787420425520202037
:101C16003E0A416374696F6E7320202020202020C5
:101C2600203E00446F204261636B7570204E6F77D3
:101C360020203E0A57616B6520666F7220636F6EC7
:101C46006669673E00537572653F2020202020207C
:101C5600204E6F203E0A20202020202020202020F9
:101C660020596573203E00537572653F2020202061
:101C76002020596573203E0A202020202020202085
:101C8600202020204E6F203E004554413A2020203F
:101C9600202530326C753A2530326C753A25303253
:101CA6006C750045544120256C7520202530326C1A
:101CB600753A2530326C753A2530326C75004554CC
:101CC6004120256C75202530326C753A2530326CF2
:101CD600753A2530326C750057616B696E67204224
:101CE600435520616E640A646F204261636B7570B0
:101CF600206E6F77202E2E0057616974696E6720FB
:101D0600666F72204243550A484220746F207374EE
:101D16006F700057616974696E6720666F72203351
:101D260056330A746F20676F206C6F7700424355F5
:101D3600207374617274696E6720757000506C65EB
:101D46006173652077616974202E2E2E00577269A3
:101D560074696E6720256C6420746F20434D502093
:101D660052656769737465720A00434D500A0052E2
:101D7600656164790054657374004563686F003A61
:101D8600004D433A2025732C20504C3A2025730AE7
:101D96000041434B3A44310041434B3A44320042FE
:101DA600550041434B3A42553A25730A00425200C8
:101DB60053420041434B3A43430041434B3A54504C
:101DC6000041434B3A33560041434B3A4F4E005580
:101DD600736572204261636B75700041434B3A44F0
:091DE600420041434B3A444C0019
:041DEF000101B40436
:00000001FF
