:1000000019C028C027C0A0C0C7C024C023C022C0B8
:1000100021C020C04CC11EC01DC01CC01BC01AC0C6
:1000200019C018C017C016C015C014C0DDC212C058
:1000300011C010C011241FBECFEFCDBFDFE3DEBF64
:100040002EE3A0E0BEE301C01D92A834B207E1F7A1
:100050003AD1CFC5BDC01092053E1092043E08951E
:10006000E0E0F4E080E88683818380E4818380E1BE
:10007000858381838CE0828382898860828B8389F7
:100080008860838BE0E2F4E083E1818380E2828315
:10009000E0E4F4E08FE08183158208958091080404
:1000A00086958695869591E08927817090E00895E0
:1000B000E0E0F4E082898360828B83898360838BB4
:1000C000089580E180932604089580E180932704B9
:1000D00008951816190624F481E0809325040895E4
:1000E00081E0809326040895E0E0F4E080E88583D1
:1000F00092E49A95F1F700C0868382E48A95F1F73D
:1001000000C00895E0E4F4E09481907F94839481AA
:100110008F70982B9483089580E48093050408954C
:1001200080E4809306040895E0E2F4E084E08583AF
:100130008183089584E0809326040895E0E2F4E04A
:1001400085898960858B08951F920F920FB60F9253
:1001500011248F93EF93FF938091090482FF08C0CD
:1001600081E08093053EE9E0F4E080818470808343
:100170008091090483FF08C081E08093013EE9E09B
:10018000F4E0808188708083FF91EF918F910F90D0
:100190000FBE0F901F9018951F920F920FB60F92DF
:1001A00011248F93EF93FF938091290485FF08C05A
:1001B00081E08093043EE9E2F4E0808180728083F4
:1001C000FF91EF918F910F900FBE0F901F90189598
:1001D0001F920F920FB60F9211242F938F939F931C
:1001E000AF93BF93EF93FF9384E190E0E0E2F4E0FC
:1001F00020E12583AFE4B3EC1197F1F700C00000D4
:100200002683AFE4B3EC1197F1F700C0000001972B
:1002100081F7FF91EF91BF91AF919F918F912F91B6
:100220000F900FBE0F901F901895E0E0FAE08BE260
:100230009AE086A397A381E0828708957FDFF5DFA8
:1002400008958091043E882329F081E090E041DF09
:100250001092043E08958091023E9091033E8F3F9C
:10026000910529F41092023E1092033E05C00196BA
:100270008093023E9093033E8091023E9091033E14
:100280000895E9DF9F938F9386EF9BE89F938F9369
:1002900087E29EE39F938F93DAD187E29EE357D163
:1002A0000F900F900F900F900F900F9008951F9246
:1002B0000F920FB60F9211241092003E0F900FBEB6
:1002C0000F901F901895C7DECBDEB8DFF1DE0BD1A3
:1002D00031D078948BEF9BE8DDD08FE09CE816D18D
:1002E000B0DF8091003E811101C024DF8091053E86
:1002F000882319F0E6DE1092053ED0DE019719F44E
:1003000089E19CE803D18091063E882339F061D1D0
:10031000D4D01092063E87E09EE3BCD02FEF80E75A
:1003200092E0215080409040E1F700C00000CDDE17
:10033000A8DFD6CF2FE78AE196E021508040904099
:10034000E1F700C00000ECDE83E0DCDE81E0CCDE23
:1003500087E893E10197F1F700C0000083E0D2DE67
:1003600081E0C2DE87E893E10197F1F700C0000069
:1003700083E0C8DE81E0B8DE87E893E10197F1F71A
:1003800000C0000082E0BEDE81E0AEDE87E893E1DF
:100390000197F1F700C0000082E0B4DE81E0A4DE46
:1003A00087E893E10197F1F700C0000088E0AADE3A
:1003B00081E09ADE87E893E10197F1F700C0000041
:1003C00080E0A0DE81E090DE87E893E10197F1F71D
:1003D00000C000008CE096DE81E086DE87E893E1D5
:1003E0000197F1F700C0000080E08CDE81E07CDE48
:1003F00087E893E10197F1F700C0000086E082DE14
:1004000081E072DE87E893E10197F1F700C0000018
:1004100080E078DE81E068DE87E893E10197F1F71C
:1004200000C0000086E06EDE81E05EDE87E893E1DA
:100430000197F1F700C0000080E064DE81E054DE47
:1004400087E893E10197F1F700C0000081E05ADEF0
:1004500081E04ADE87E893E10197F1F700C00000F0
:100460000895CF93C82F58DE8C2F82958F704ADE67
:1004700081E03ADE8C2F46DE81E036DECF910895B2
:100480004FDE8CE03FDE81E02FDE80E03BDE81E06E
:100490002BDE0895CF93DF93EC013EDE8881882325
:1004A00049F021968A3011F4EBDF01C0DADF89913F
:1004B0008111F8CFDF91CF91089532DE80E022DE06
:1004C00081E012DE81E01EDE81E00EDE87EA91E649
:1004D0000197F1F700C000000895E0E0F8E08581A1
:1004E00080688583089520DEE0E0F8E08CE695E002
:1004F0008087918780EC8683F0DF0895E0E0F8E064
:10050000948195FFFDCF809302080895EF92FF92AA
:100510000F931F93CF93DF938C017C01C0E0D0E059
:1005200005C0F70181917F01E9DF2196F801019073
:100530000020E9F73197E01BF10BCE17DF0788F3B6
:10054000DF91CF911F910F91FF90EF900895DEDF23
:1005500080E0D4DF0895E0E0F8E084818823ECF7C0
:10056000809100080895CF92DF92EF92FF920F934F
:100570001F93CF93DF937C016B016132710524F0EF
:100580006894CC24C5F8D12CDD20C4F0E70100E04C
:1005900010E07E010F5F1F4FDEDF89938A3021F06C
:1005A000882311F08D3031F4F7011082C016D10686
:1005B0003CF404C07E01C016D1065CF7F70110823E
:1005C000DF91CF911F910F91FF90EF90DF90CF902F
:1005D000089563E27CE887E09EE330D0892B19F42C
:1005E00088E29CE8B4DF08951F920F920FB60F9235
:1005F00011242F933F934F935F936F937F938F9328
:100600009F93AF93BF93EF93FF9360E270E087E017
:100610009EE3A9DF81E08093063EFF91EF91BF91B9
:10062000AF919F918F917F916F915F914F913F918A
:100630002F910F900FBE0F901F901895FB01DC01BA
:100640008D91019080190110D9F3990B0895AEE0B6
:10065000B0E0ECE2F3E0AAC20D891E8986E08C834B
:1006600009831A838FEF9FE78D839E83AE01475ED8
:100670005F4F6F89788DCE01019608D0EF81F885A4
:10068000E00FF11F10822E96E4E0A9C2ABE0B0E0CB
:10069000EBE4F3E07DC26C017B018A01FC01168270
:1006A0001782838181FFBFC1CE0101963C01F60113
:1006B0009381F70193FD859193FF81917F018823B9
:1006C00009F4ADC1853239F493FD859193FF819191
:1006D0007F01853221F4B60190E0C0D1E8CF912CA2
:1006E000212C312CFFE1F315D8F08B3279F038F45E
:1006F000803279F08332A1F4232D20611DC08D3228
:1007000061F0803369F4232D216016C0832D82604F
:10071000382EE32DE4603E2E2AC0F32DF8601DC074
:1007200037FC2DC020ED280F2A3040F08E32B9F46E
:1007300036FC75C1232D2064322E19C036FE06C04A
:100740008AE0989E200D1124922E11C0EAE02E9E80
:10075000200D1124222EF32DF0623F2E08C08C367E
:1007600021F4832D8068382E02C0883641F4F701C9
:1007700093FD859193FF81917F018111B3CF982FD4
:100780009F7D9554933028F40C5F1F4F9FE399830E
:100790000DC0833631F0833771F0833509F055C0D1
:1007A00020C0F801808189830E5F1F4F88248394C5
:1007B000912C530112C02801F2E04F0E511CF80198
:1007C000A080B18036FE03C0692D70E002C06FEFDB
:1007D0007FEFC50138D14C018201F32DFF773F2E09
:1007E00015C0280122E0420E511CF801A080B18002
:1007F00036FE03C0692D70E002C06FEF7FEFC501C8
:1008000017D14C01F32DF0683F2E820133FC19C043
:10081000822D90E088169906A0F4B60180E290E05F
:100820001DD12A94F5CFF50137FC859137FE8191D2
:100830005F01B60190E012D121102A9421E0821AC2
:1008400091088114910479F7E1C0843611F089365A
:1008500039F5F80137FE07C060817181828193818B
:100860000C5F1F4F08C060817181072E000C880B40
:10087000990B0E5F1F4FF32DFF763F2E97FF09C098
:1008800090958095709561957F4F8F4F9F4FF06841
:100890003F2E2AE030E0A3011DD1882E861844C0E7
:1008A000853731F4232D2F7EB22E2AE030E025C08B
:1008B000932D997FB92E8F36C1F018F4883579F0D1
:1008C000AEC0803719F0883721F0A9C0E92FE06168
:1008D000BE2EB4FE0DC0FB2DF460BF2E09C034FE49
:1008E0000AC0292F2660B22E06C028E030E005C0DD
:1008F00020E130E002C020E132E0F801B7FE07C09D
:1009000060817181828193810C5F1F4F06C060817D
:10091000718180E090E00E5F1F4FA301DBD0882E35
:100920008618FB2DFF773F2E36FE0DC0232D2E7F20
:10093000A22E891458F434FE0BC032FC09C0832D5A
:100940008E7EA82E05C0B82CA32C03C0B82C01C0E5
:10095000B92CA4FE0FC0FE01E80DF11D808180338B
:1009600021F49A2D997EA92E09C0A2FE06C0B39447
:10097000B39404C08A2D867809F0B394A3FC10C008
:10098000A0FE06C0B21480F4280C922C9B180DC057
:10099000B21458F4B60180E290E060D0B394F8CF7E
:1009A000B21418F42B1802C0982C212CA4FE0FC0EE
:1009B000B60180E390E052D0A2FE16C0A1FC03C0B5
:1009C00088E790E002C088E590E0B6010CC08A2D6F
:1009D000867851F0A1FE02C08BE201C080E2A7FC44
:1009E0008DE2B60190E03AD0891430F4B60180E38C
:1009F00090E034D09A94F8CF8A94F301E80DF11D79
:100A00008081B60190E02AD08110F6CF222009F42F
:100A10004ECEB60180E290E021D02A94F7CFF601C5
:100A20008681978102C08FEF9FEF2B96E2E1C9C0CC
:100A3000FC010590615070400110D8F780959095A9
:100A40008E0F9F1F0895FC016150704001900110AE
:100A5000D8F7809590958E0F9F1F08950F931F9341
:100A6000CF93DF93FB01238121FD03C08FEF9FEF25
:100A70002CC022FF16C04681578124813581421740
:100A8000530744F4A081B1819D012F5F3F4F208324
:100A900031838C93268137812F5F3F4F26833783A5
:100AA00014C08B01EC01FB010084F185E02D099558
:100AB000892BE1F6D80116968D919C911797019696
:100AC00016968D939C931797CE01DF91CF911F912E
:100AD0000F910895FA01AA27283051F1203181F1B0
:100AE000E8946F936E7F6E5F7F4F8F4F9F4FAF4F36
:100AF000B1E03ED0B4E03CD0670F781F891F9A1F49
:100B0000A11D680F791F8A1F911DA11D6A0F711DFC
:100B1000811D911DA11D20D009F468943F912AE008
:100B2000269F11243019305D3193DEF6CF010895F0
:100B3000462F4770405D4193B3E00FD0C9F7F6CF21
:100B4000462F4F70405D4A3318F0495D31FD4052E9
:100B5000419302D0A9F7EACFB4E0A695979587957F
:100B600077956795BA95C9F700976105710508955E
:100B70009B01AC010A2E069457954795379527950A
:100B8000BA95C9F7620F731F841F951FA01D0895A2
:100B90002F923F924F925F926F927F928F929F928D
:100BA000AF92BF92CF92DF92EF92FF920F931F937B
:100BB000CF93DF93CDB7DEB7CA1BDB0BCDBFDEBF54
:100BC00009942A88398848885F846E847D848C845F
:100BD0009B84AA84B984C884DF80EE80FD800C8168
:100BE0001B81AA81B981CE0FD11DCDBFDEBFED0122
:060BF0000895F894FFCF08
:100BF600483A2569005374616E64627920556E69BE
:100C0600740A72656164792100493A535441525419
:100C1600454400433A48656C6C6F0D0A0054657391
:070C260074004563686F00D4
:00000001FF
