:1000000019C028C027C063C125C024C023C022C096
:1000100021C020C01FC01EC01DC01CC01BC01AC0F4
:1000200019C018C017C016C015C014C013C012C024
:1000300011C010C011241FBECFEFCDBFDFE3DEBF64
:100040002EE3A0E0BEE301C01D92A130B207E1F7AC
:1000500055D08CC1D5CFE0E0F4E080E88683818381
:1000600080E4818380E1858381838CE0828382893F
:100070008860828B83898860838B83E380932104EB
:10008000E0E4F4E08FE08183158208958091080414
:1000900086958695869591E08927817090E00895F0
:1000A00080E180932504089580E1809326040895DB
:1000B000E0E0F4E080E8858392E49A95F1F700C0EF
:1000C000868382E48A95F1F700C00895E0E4F4E0C5
:1000D0009481907F948394818F70982B948308955A
:1000E00080E480930504089580E4809306040895D5
:1000F000E0E2F4E084E0858381830895ACDF1BD0E7
:1001000002D131D0789480E793E8D3D08091003E3B
:10011000882311F0C5DF01C0C7DFB8DF019739F4CC
:1001200081E090E011D08DE793E8FFD0EFCF80E041
:1001300090E00AD0EBCFE0E0F4E082898360828B2C
:1001400083898360838B08951816190634F4E0E2DE
:10015000F4E08481816084830895E0E2F4E08481A6
:100160008E7F848308952FE78AE196E021508040B6
:100170009040E1F700C00000B7DF83E0A7DF81E037
:1001800097DF87E893E10197F1F700C0000083E073
:100190009DDF81E08DDF87E893E10197F1F700C0F3
:1001A000000083E093DF81E083DF87E893E101973C
:1001B000F1F700C0000082E089DF81E079DF87E8A5
:1001C00093E10197F1F700C0000082E07FDF81E05A
:1001D0006FDF87E893E10197F1F700C0000088E046
:1001E00075DF81E065DF87E893E10197F1F700C0F3
:1001F000000080E06BDF81E05BDF87E893E101973F
:10020000F1F700C000008CE061DF81E051DF87E89A
:1002100093E10197F1F700C0000080E057DF81E033
:1002200047DF87E893E10197F1F700C0000086E01F
:100230004DDF81E03DDF87E893E10197F1F700C0F2
:10024000000080E043DF81E033DF87E893E101973E
:10025000F1F700C0000086E039DF81E029DF87E8A0
:1002600093E10197F1F700C0000080E02FDF81E00B
:100270001FDF87E893E10197F1F700C0000081E0FC
:1002800025DF81E015DF87E893E10197F1F700C0F2
:1002900000000895CF93C82F23DF8C2F82958F7095
:1002A00015DF81E005DF8C2F11DF81E001DFCF91C9
:1002B0000895CF93DF93EC018881882329F021965C
:1002C000E9DF89918111FCCFDF91CF9108951F92D1
:1002D0000F920FB60F9211248F93EF93FF9380919B
:1002E000090482FF08C081E08093003EE9E0F4E069
:1002F000808184708083FF91EF918F910F900FBE6A
:100300000F901F901895F4DEE0E0F8E08CE695E0A1
:100310008087918780EC86830895E0E0F8E09481FF
:1003200095FFFDCF809302080895EF92FF920F93FF
:100330001F93CF93DF938C017C01C0E0D0E005C018
:10034000F70181917F01E9DF2196F80101900020FA
:10035000E9F73197E01BF10BCE17DF0788F3DF9148
:10036000CF911F910F91FF90EF900895F894FFCFD8
:1003700048616C6C6F2057656C74210A00433A48E1
:07038000656C6C6F0D0A00B3
:00000001FF
