:1000000019C028C027C091C125C024C023C022C068
:1000100021C020C01FC01EC01DC01CC01BC01AC0F4
:1000200019C018C017C016C015C014C013C012C024
:1000300011C010C011241FBECFEFCDBFDFE3DEBF64
:100040002EE3A0E0BEE301C01D92A330B207E1F7AA
:100050006FD0BAC1D5CFE0E0F4E080E88683818339
:1000600080E4818380E1858381838CE0828382893F
:100070008860828B83898860838B83E180932104ED
:1000800080E28283E0E4F4E08FE0818315820895CA
:100090008091080486958695869591E089278170E0
:1000A00090E0089580E180932504089580E1809395
:1000B0002604089580E1809327040895E0E0F4E0A9
:1000C00080E8858392E49A95F1F700C0868382E404
:1000D0008A95F1F700C00895E0E4F4E09481907F00
:1000E000948394818F70982B9483089580E48093F7
:1000F0000504089580E4809306040895E0E2F4E0A6
:1001000084E085838183089584E0809326040895A4
:10011000E0E0F4E085898160858B0895F9DF08953A
:100120008091013E882319F0C5DF1092013E0895A9
:1001300092DFF4DF25D015D13BD078948CEC93E896
:10014000DDD0EEDF8091003E811101C0DDDF8091C6
:10015000023E882311F0A6DF01C0A8DF99DF0197D6
:1001600039F481E090E015D089ED93E80CD103C01B
:1001700080E090E00ED0D0D083EE93E8BFD0E1CF06
:10018000E0E0F4E082898360828B83898360838BE3
:1001900008951816190634F4E0E2F4E084818160D1
:1001A00084830895E0E2F4E084818E7F848308955F
:1001B0002FE78AE196E0215080409040E1F700C0AF
:1001C000000098DF83E088DF81E078DF87E893E153
:1001D0000197F1F700C0000083E07EDF81E06EDF71
:1001E00087E893E10197F1F700C0000083E074DF36
:1001F00081E064DF87E893E10197F1F700C0000038
:1002000082E06ADF81E05ADF87E893E10197F1F746
:1002100000C0000082E060DF81E050DF87E893E10A
:100220000197F1F700C0000088E056DF81E046DF6B
:1002300087E893E10197F1F700C0000080E04CDF10
:1002400081E03CDF87E893E10197F1F700C000000F
:100250008CE042DF81E032DF87E893E10197F1F73C
:1002600000C0000080E038DF81E028DF87E893E10C
:100270000197F1F700C0000086E02EDF81E01EDF6D
:1002800087E893E10197F1F700C0000080E024DFE8
:1002900081E014DF87E893E10197F1F700C00000E7
:1002A00086E01ADF81E00ADF87E893E10197F1F742
:1002B00000C0000080E010DF81E000DF87E893E10C
:1002C0000197F1F700C0000081E006DF81E0F6DE73
:1002D00087E893E10197F1F700C000000895CF93FC
:1002E000C82F04DF8C2F82958F70F6DE81E0E6DE6A
:1002F0008C2FF2DE81E0E2DECF910895CF93DF9381
:10030000EC018881882329F02196E9DF8991811108
:10031000FCCFDF91CF91089580E0DEDE81E0CEDE7C
:1003200081E0DADE81E0CADE08951F920F920FB6F7
:100330000F9211248F93EF93FF938091090482FF12
:1003400008C081E08093023EE9E0F4E0808184709F
:100350008083FF91EF918F910F900FBE0F901F90B0
:100360001895CCDEE0E0F8E08CE695E08087918798
:1003700080EC86830895E0E0F8E0948195FFFDCF5E
:10038000809302080895EF92FF920F931F93CF93EB
:10039000DF938C017C01C0E0D0E005C0F7018191C2
:1003A0007F01E9DF2196F80101900020E9F73197FC
:1003B000E01BF10BCE17DF0788F3DF91CF911F9180
:0C03C0000F91FF90EF900895F894FFCF8C
:1003CC0048616C6C6F2057656C74210A00433A4885
:1003DC00656C6C6F0D0A0048656C6C6F2041676131
:0303EC00696E0037
:00000001FF
